{
  "_format": "hh-sol-artifact-1",
  "contractName": "DutchAuction",
  "sourceName": "contracts/DutchAuction.sol",
  "abi": [
    {
      "inputs": [
        {
          "internalType": "uint256",
          "name": "_reservePrice",
          "type": "uint256"
        },
        {
          "internalType": "address",
          "name": "_judgeAddress",
          "type": "address"
        },
        {
          "internalType": "uint256",
          "name": "_numBlocksAuctionOpen",
          "type": "uint256"
        },
        {
          "internalType": "uint256",
          "name": "_offerPriceDecrement",
          "type": "uint256"
        }
      ],
      "stateMutability": "nonpayable",
      "type": "constructor"
    },
    {
      "inputs": [],
      "name": "bid",
      "outputs": [],
      "stateMutability": "payable",
      "type": "function"
    },
    {
      "inputs": [],
      "name": "finalize",
      "outputs": [],
      "stateMutability": "nonpayable",
      "type": "function"
    },
    {
      "inputs": [],
      "name": "getBasicInfo",
      "outputs": [
        {
          "internalType": "bool",
          "name": "",
          "type": "bool"
        },
        {
          "internalType": "uint256",
          "name": "",
          "type": "uint256"
        },
        {
          "internalType": "uint256",
          "name": "",
          "type": "uint256"
        },
        {
          "internalType": "address",
          "name": "",
          "type": "address"
        },
        {
          "internalType": "address",
          "name": "",
          "type": "address"
        },
        {
          "internalType": "bool",
          "name": "",
          "type": "bool"
        }
      ],
      "stateMutability": "view",
      "type": "function"
    },
    {
      "inputs": [],
      "name": "nop",
      "outputs": [
        {
          "internalType": "bool",
          "name": "",
          "type": "bool"
        }
      ],
      "stateMutability": "pure",
      "type": "function"
    },
    {
      "inputs": [],
      "name": "refund",
      "outputs": [],
      "stateMutability": "payable",
      "type": "function"
    }
  ],
  "bytecode": "0x608060405234801561001057600080fd5b50604051610b77380380610b7783398181016040528101906100329190610102565b8360018190555082600260006101000a81548173ffffffffffffffffffffffffffffffffffffffff021916908373ffffffffffffffffffffffffffffffffffffffff1602179055508160038190555080600481905550336000806101000a81548173ffffffffffffffffffffffffffffffffffffffff021916908373ffffffffffffffffffffffffffffffffffffffff16021790555043600581905550505050506101cf565b6000815190506100e7816101a1565b92915050565b6000815190506100fc816101b8565b92915050565b6000806000806080858703121561011857600080fd5b6000610126878288016100ed565b9450506020610137878288016100d8565b9350506040610148878288016100ed565b9250506060610159878288016100ed565b91505092959194509250565b600061017082610177565b9050919050565b600073ffffffffffffffffffffffffffffffffffffffff82169050919050565b6000819050919050565b6101aa81610165565b81146101b557600080fd5b50565b6101c181610197565b81146101cc57600080fd5b50565b610999806101de6000396000f3fe60806040526004361061004a5760003560e01c80631998aeef1461004f5780632e9c58bb146100595780634bb278f314610084578063590e1ae31461009b5780639f999da3146100a5575b600080fd5b6100576100d5565b005b34801561006557600080fd5b5061006e6102f8565b60405161007b919061078c565b60405180910390f35b34801561009057600080fd5b50610099610301565b005b6100a3610531565b005b3480156100b157600080fd5b506100ba610679565b6040516100cc969594939291906107a7565b60405180910390f35b600860009054906101000a900460ff16156100ef57600080fd5b6003546005546100ff9190610808565b431061010a57600080fd5b4360035460055461011b9190610808565b61012591906108b8565b600454610132919061085e565b60015461013f9190610808565b34101561014b57600080fd5b6001600860006101000a81548160ff021916908315150217905550600073ffffffffffffffffffffffffffffffffffffffff16600260009054906101000a900473ffffffffffffffffffffffffffffffffffffffff1673ffffffffffffffffffffffffffffffffffffffff1614156102295760008054906101000a900473ffffffffffffffffffffffffffffffffffffffff1673ffffffffffffffffffffffffffffffffffffffff166108fc349081150290604051600060405180830381858888f19350505050158015610223573d6000803e3d6000fd5b506102f6565b33600660006101000a81548173ffffffffffffffffffffffffffffffffffffffff021916908373ffffffffffffffffffffffffffffffffffffffff160217905550346007819055506001600860046101000a81548160ff02191690831515021790555060008054906101000a900473ffffffffffffffffffffffffffffffffffffffff1673ffffffffffffffffffffffffffffffffffffffff166108fc6007549081150290604051600060405180830381858888f193505050501580156102f4573d6000803e3d6000fd5b505b565b60006001905090565b600860009054906101000a900460ff16801561032a5750600860019054906101000a900460ff16155b80156103425750600860049054906101000a900460ff165b61034b57600080fd5b600860029054906101000a900460ff161580156103755750600860039054906101000a900460ff16155b61037e57600080fd5b600260009054906101000a900473ffffffffffffffffffffffffffffffffffffffff1673ffffffffffffffffffffffffffffffffffffffff163373ffffffffffffffffffffffffffffffffffffffff1614806104275750600660009054906101000a900473ffffffffffffffffffffffffffffffffffffffff1673ffffffffffffffffffffffffffffffffffffffff163373ffffffffffffffffffffffffffffffffffffffff16145b61043057600080fd5b600260009054906101000a900473ffffffffffffffffffffffffffffffffffffffff1673ffffffffffffffffffffffffffffffffffffffff163373ffffffffffffffffffffffffffffffffffffffff1614156104a2576001600860026101000a81548160ff0219169083151502179055505b600660009054906101000a900473ffffffffffffffffffffffffffffffffffffffff1673ffffffffffffffffffffffffffffffffffffffff163373ffffffffffffffffffffffffffffffffffffffff161415610514576001600860036101000a81548160ff0219169083151502179055505b6001600860016101000a81548160ff021916908315150217905550565b600860009054906101000a900460ff16801561055a5750600860019054906101000a900460ff16155b80156105735750600860029054906101000a900460ff16155b61057c57600080fd5b600260009054906101000a900473ffffffffffffffffffffffffffffffffffffffff1673ffffffffffffffffffffffffffffffffffffffff163373ffffffffffffffffffffffffffffffffffffffff16146105d657600080fd5b6001600860026101000a81548160ff0219169083151502179055506001600860016101000a81548160ff021916908315150217905550600660009054906101000a900473ffffffffffffffffffffffffffffffffffffffff1673ffffffffffffffffffffffffffffffffffffffff166108fc6007549081150290604051600060405180830381858888f19350505050158015610676573d6000803e3d6000fd5b50565b6000806000806000806000600454600354610694919061085e565b6001546106a19190610808565b905060006005549050600081436106b891906108b8565b6004546106c5919061085e565b836106d091906108b8565b90506000600860019054906101000a900460ff16156106ee57600190505b8082600154600260009054906101000a900473ffffffffffffffffffffffffffffffffffffffff1660008054906101000a900473ffffffffffffffffffffffffffffffffffffffff16600860019054906101000a900460ff1699509950995099509950995050505050909192939495565b610768816108ec565b82525050565b610777816108fe565b82525050565b6107868161092a565b82525050565b60006020820190506107a1600083018461076e565b92915050565b600060c0820190506107bc600083018961076e565b6107c9602083018861077d565b6107d6604083018761077d565b6107e3606083018661075f565b6107f0608083018561075f565b6107fd60a083018461076e565b979650505050505050565b60006108138261092a565b915061081e8361092a565b9250827fffffffffffffffffffffffffffffffffffffffffffffffffffffffffffffffff0382111561085357610852610934565b5b828201905092915050565b60006108698261092a565b91506108748361092a565b9250817fffffffffffffffffffffffffffffffffffffffffffffffffffffffffffffffff04831182151516156108ad576108ac610934565b5b828202905092915050565b60006108c38261092a565b91506108ce8361092a565b9250828210156108e1576108e0610934565b5b828203905092915050565b60006108f78261090a565b9050919050565b60008115159050919050565b600073ffffffffffffffffffffffffffffffffffffffff82169050919050565b6000819050919050565b7f4e487b7100000000000000000000000000000000000000000000000000000000600052601160045260246000fdfea2646970667358221220e6e523bdd2706638f87e46a396b3885cc81f5669ae7a257e3044a0f4686f5aea64736f6c63430008040033",
  "linkReferences": {},
  "deployedLinkReferences": {}
}