{
  "_format": "hh-sol-artifact-1",
  "contractName": "DutchAuction",
  "sourceName": "contracts/DutchAuction.sol",
  "abi": [
    {
      "inputs": [
        {
          "internalType": "uint256",
          "name": "_reservePrice",
          "type": "uint256"
        },
        {
          "internalType": "address",
          "name": "_judgeAddress",
          "type": "address"
        },
        {
          "internalType": "uint256",
          "name": "_numBlocksAuctionOpen",
          "type": "uint256"
        },
        {
          "internalType": "uint256",
          "name": "_offerPriceDecrement",
          "type": "uint256"
        }
      ],
      "stateMutability": "nonpayable",
      "type": "constructor"
    },
    {
      "inputs": [],
      "name": "bid",
      "outputs": [],
      "stateMutability": "payable",
      "type": "function"
    },
    {
      "inputs": [],
      "name": "finalize",
      "outputs": [],
      "stateMutability": "nonpayable",
      "type": "function"
    },
    {
      "inputs": [],
      "name": "getBasicInfo",
      "outputs": [
        {
          "internalType": "bool",
          "name": "",
          "type": "bool"
        },
        {
          "internalType": "uint256",
          "name": "",
          "type": "uint256"
        },
        {
          "internalType": "uint256",
          "name": "",
          "type": "uint256"
        },
        {
          "internalType": "address",
          "name": "",
          "type": "address"
        },
        {
          "internalType": "address",
          "name": "",
          "type": "address"
        },
        {
          "internalType": "bool",
          "name": "",
          "type": "bool"
        }
      ],
      "stateMutability": "view",
      "type": "function"
    },
    {
      "inputs": [],
      "name": "nop",
      "outputs": [
        {
          "internalType": "bool",
          "name": "",
          "type": "bool"
        }
      ],
      "stateMutability": "pure",
      "type": "function"
    },
    {
      "inputs": [
        {
          "internalType": "uint256",
          "name": "refundAmount",
          "type": "uint256"
        }
      ],
      "name": "refund",
      "outputs": [],
      "stateMutability": "nonpayable",
      "type": "function"
    }
  ],
  "bytecode": "0x60806040523480156200001157600080fd5b5060405162000c0638038062000c0683398181016040528101906200003791906200010c565b8360018190555082600260006101000a81548173ffffffffffffffffffffffffffffffffffffffff021916908373ffffffffffffffffffffffffffffffffffffffff1602179055508160038190555080600481905550336000806101000a81548173ffffffffffffffffffffffffffffffffffffffff021916908373ffffffffffffffffffffffffffffffffffffffff1602179055504360058190555050505050620001ea565b600081519050620000ef81620001b6565b92915050565b6000815190506200010681620001d0565b92915050565b600080600080608085870312156200012357600080fd5b60006200013387828801620000f5565b94505060206200014687828801620000de565b93505060406200015987828801620000f5565b92505060606200016c87828801620000f5565b91505092959194509250565b600062000185826200018c565b9050919050565b600073ffffffffffffffffffffffffffffffffffffffff82169050919050565b6000819050919050565b620001c18162000178565b8114620001cd57600080fd5b50565b620001db81620001ac565b8114620001e757600080fd5b50565b610a0c80620001fa6000396000f3fe60806040526004361061004a5760003560e01c80631998aeef1461004f578063278ecde1146100595780632e9c58bb146100825780634bb278f3146100ad5780639f999da3146100c4575b600080fd5b6100576100f4565b005b34801561006557600080fd5b50610080600480360381019061007b9190610792565b6102ae565b005b34801561008e57600080fd5b506100976103f5565b6040516100a491906107e8565b60405180910390f35b3480156100b957600080fd5b506100c26103fe565b005b3480156100d057600080fd5b506100d9610697565b6040516100eb96959493929190610803565b60405180910390f35b600860009054906101000a900460ff161561010e57600080fd5b60035460055461011e9190610864565b431061012957600080fd5b4360035460055461013a9190610864565b6101449190610914565b60045461015191906108ba565b60015461015e9190610864565b34101561016a57600080fd5b6001600860006101000a81548160ff021916908315150217905550600073ffffffffffffffffffffffffffffffffffffffff16600260009054906101000a900473ffffffffffffffffffffffffffffffffffffffff1673ffffffffffffffffffffffffffffffffffffffff1614156102485760008054906101000a900473ffffffffffffffffffffffffffffffffffffffff1673ffffffffffffffffffffffffffffffffffffffff166108fc349081150290604051600060405180830381858888f19350505050158015610242573d6000803e3d6000fd5b506102ac565b33600660006101000a81548173ffffffffffffffffffffffffffffffffffffffff021916908373ffffffffffffffffffffffffffffffffffffffff160217905550346007819055506001600860046101000a81548160ff0219169083151502179055505b565b600860009054906101000a900460ff1680156102d75750600860019054906101000a900460ff16155b80156102f05750600860029054906101000a900460ff16155b6102f957600080fd5b600260009054906101000a900473ffffffffffffffffffffffffffffffffffffffff1673ffffffffffffffffffffffffffffffffffffffff163373ffffffffffffffffffffffffffffffffffffffff161461035357600080fd5b6001600860026101000a81548160ff0219169083151502179055506001600860016101000a81548160ff021916908315150217905550600660009054906101000a900473ffffffffffffffffffffffffffffffffffffffff1673ffffffffffffffffffffffffffffffffffffffff166108fc829081150290604051600060405180830381858888f193505050501580156103f1573d6000803e3d6000fd5b5050565b60006001905090565b600860009054906101000a900460ff1680156104275750600860019054906101000a900460ff16155b801561043f5750600860049054906101000a900460ff165b61044857600080fd5b600860029054906101000a900460ff161580156104725750600860039054906101000a900460ff16155b61047b57600080fd5b600260009054906101000a900473ffffffffffffffffffffffffffffffffffffffff1673ffffffffffffffffffffffffffffffffffffffff163373ffffffffffffffffffffffffffffffffffffffff1614806105245750600660009054906101000a900473ffffffffffffffffffffffffffffffffffffffff1673ffffffffffffffffffffffffffffffffffffffff163373ffffffffffffffffffffffffffffffffffffffff16145b61052d57600080fd5b600260009054906101000a900473ffffffffffffffffffffffffffffffffffffffff1673ffffffffffffffffffffffffffffffffffffffff163373ffffffffffffffffffffffffffffffffffffffff16141561059f576001600860026101000a81548160ff0219169083151502179055505b600660009054906101000a900473ffffffffffffffffffffffffffffffffffffffff1673ffffffffffffffffffffffffffffffffffffffff163373ffffffffffffffffffffffffffffffffffffffff161415610611576001600860036101000a81548160ff0219169083151502179055505b6001600860016101000a81548160ff02191690831515021790555060008054906101000a900473ffffffffffffffffffffffffffffffffffffffff1673ffffffffffffffffffffffffffffffffffffffff166108fc6007549081150290604051600060405180830381858888f19350505050158015610694573d6000803e3d6000fd5b50565b60008060008060008060006004546003546106b291906108ba565b6001546106bf9190610864565b905060006005549050600081436106d69190610914565b6004546106e391906108ba565b836106ee9190610914565b90506000600860019054906101000a900460ff161561070c57600190505b8082600154600260009054906101000a900473ffffffffffffffffffffffffffffffffffffffff1660008054906101000a900473ffffffffffffffffffffffffffffffffffffffff16600860019054906101000a900460ff1699509950995099509950995050505050909192939495565b60008135905061078c816109bf565b92915050565b6000602082840312156107a457600080fd5b60006107b28482850161077d565b91505092915050565b6107c481610948565b82525050565b6107d38161095a565b82525050565b6107e281610986565b82525050565b60006020820190506107fd60008301846107ca565b92915050565b600060c08201905061081860008301896107ca565b61082560208301886107d9565b61083260408301876107d9565b61083f60608301866107bb565b61084c60808301856107bb565b61085960a08301846107ca565b979650505050505050565b600061086f82610986565b915061087a83610986565b9250827fffffffffffffffffffffffffffffffffffffffffffffffffffffffffffffffff038211156108af576108ae610990565b5b828201905092915050565b60006108c582610986565b91506108d083610986565b9250817fffffffffffffffffffffffffffffffffffffffffffffffffffffffffffffffff048311821515161561090957610908610990565b5b828202905092915050565b600061091f82610986565b915061092a83610986565b92508282101561093d5761093c610990565b5b828203905092915050565b600061095382610966565b9050919050565b60008115159050919050565b600073ffffffffffffffffffffffffffffffffffffffff82169050919050565b6000819050919050565b7f4e487b7100000000000000000000000000000000000000000000000000000000600052601160045260246000fd5b6109c881610986565b81146109d357600080fd5b5056fea264697066735822122010da1428c35f7193b5d41833e3f4cebd11f91f7d60279cd74a962e07738e294f64736f6c63430008040033",
  "linkReferences": {},
  "deployedLinkReferences": {}
}